{
  "contractName": "CoShoe",
  "abi": [
    {
      "inputs": [],
      "payable": false,
      "stateMutability": "nonpayable",
      "type": "constructor"
    },
    {
      "constant": true,
      "inputs": [
        {
          "internalType": "address",
          "name": "",
          "type": "address"
        }
      ],
      "name": "balances",
      "outputs": [
        {
          "internalType": "uint256",
          "name": "",
          "type": "uint256"
        }
      ],
      "payable": false,
      "stateMutability": "view",
      "type": "function"
    },
    {
      "constant": true,
      "inputs": [],
      "name": "price",
      "outputs": [
        {
          "internalType": "uint256",
          "name": "",
          "type": "uint256"
        }
      ],
      "payable": false,
      "stateMutability": "view",
      "type": "function"
    },
    {
      "constant": true,
      "inputs": [
        {
          "internalType": "uint256",
          "name": "",
          "type": "uint256"
        }
      ],
      "name": "shoes",
      "outputs": [
        {
          "internalType": "address payable",
          "name": "owner",
          "type": "address"
        },
        {
          "internalType": "bool",
          "name": "sold",
          "type": "bool"
        },
        {
          "internalType": "string",
          "name": "name",
          "type": "string"
        },
        {
          "internalType": "string",
          "name": "image",
          "type": "string"
        }
      ],
      "payable": false,
      "stateMutability": "view",
      "type": "function"
    },
    {
      "constant": true,
      "inputs": [],
      "name": "shoesSold",
      "outputs": [
        {
          "internalType": "uint256",
          "name": "",
          "type": "uint256"
        }
      ],
      "payable": false,
      "stateMutability": "view",
      "type": "function"
    },
    {
      "constant": false,
      "inputs": [
        {
          "internalType": "string",
          "name": "_name",
          "type": "string"
        },
        {
          "internalType": "string",
          "name": "_image",
          "type": "string"
        }
      ],
      "name": "buyShoe",
      "outputs": [],
      "payable": true,
      "stateMutability": "payable",
      "type": "function"
    },
    {
      "constant": true,
      "inputs": [],
      "name": "checkPurchases",
      "outputs": [
        {
          "internalType": "bool[]",
          "name": "",
          "type": "bool[]"
        }
      ],
      "payable": false,
      "stateMutability": "view",
      "type": "function"
    }
  ],
  "bytecode": "0x60806040526706f05b59d3b20000600055600060015534801561002157600080fd5b5061002a6101c0565b33816000019073ffffffffffffffffffffffffffffffffffffffff16908173ffffffffffffffffffffffffffffffffffffffff168152505060405180602001604052806000815250816040018190525060405180602001604052806000815250816060018190525060008160200190151590811515815250506064600360003373ffffffffffffffffffffffffffffffffffffffff1673ffffffffffffffffffffffffffffffffffffffff168152602001908152602001600020819055506002819080600181540180825580915050906001820390600052602060002090600302016000909192909190915060008201518160000160006101000a81548173ffffffffffffffffffffffffffffffffffffffff021916908373ffffffffffffffffffffffffffffffffffffffff16021790555060208201518160000160146101000a81548160ff0219169083151502179055506040820151816001019080519060200190610199929190610200565b5060608201518160020190805190602001906101b6929190610200565b50505050506102a5565b6040518060800160405280600073ffffffffffffffffffffffffffffffffffffffff16815260200160001515815260200160608152602001606081525090565b828054600181600116156101000203166002900490600052602060002090601f016020900481019282601f1061024157805160ff191683800117855561026f565b8280016001018555821561026f579182015b8281111561026e578251825591602001919060010190610253565b5b50905061027c9190610280565b5090565b6102a291905b8082111561029e576000816000905550600101610286565b5090565b90565b610a0b806102b46000396000f3fe6080604052600436106100555760003560e01c806327e235e31461005a578063540a2f4f146100bf578063558a2b8b14610211578063607473cf1461027d578063a035b1fe146103db578063c141e8eb14610406575b600080fd5b34801561006657600080fd5b506100a96004803603602081101561007d57600080fd5b81019080803573ffffffffffffffffffffffffffffffffffffffff169060200190929190505050610431565b6040518082815260200191505060405180910390f35b61020f600480360360408110156100d557600080fd5b81019080803590602001906401000000008111156100f257600080fd5b82018360208201111561010457600080fd5b8035906020019184600183028401116401000000008311171561012657600080fd5b91908080601f016020809104026020016040519081016040528093929190818152602001838380828437600081840152601f19601f8201169050808301925050505050505091929192908035906020019064010000000081111561018957600080fd5b82018360208201111561019b57600080fd5b803590602001918460018302840111640100000000831117156101bd57600080fd5b91908080601f016020809104026020016040519081016040528093929190818152602001838380828437600081840152601f19601f820116905080830192505050505050509192919290505050610449565b005b34801561021d57600080fd5b50610226610673565b6040518080602001828103825283818151815260200191508051906020019060200280838360005b8381101561026957808201518184015260208101905061024e565b505050509050019250505060405180910390f35b34801561028957600080fd5b506102b6600480360360208110156102a057600080fd5b810190808035906020019092919050505061078b565b604051808573ffffffffffffffffffffffffffffffffffffffff1673ffffffffffffffffffffffffffffffffffffffff168152602001841515151581526020018060200180602001838103835285818151815260200191508051906020019080838360005b8381101561033657808201518184015260208101905061031b565b50505050905090810190601f1680156103635780820380516001836020036101000a031916815260200191505b50838103825284818151815260200191508051906020019080838360005b8381101561039c578082015181840152602081019050610381565b50505050905090810190601f1680156103c95780820380516001836020036101000a031916815260200191505b50965050505050505060405180910390f35b3480156103e757600080fd5b506103f0610925565b6040518082815260200191505060405180910390f35b34801561041257600080fd5b5061041b61092b565b6040518082815260200191505060405180910390f35b60036020528060005260406000206000915090505481565b6000600154118061045d5750606460015411155b6104cf576040517f08c379a000000000000000000000000000000000000000000000000000000000815260040180806020018281038252601b8152602001807f54686520617265206e6f2073686f657320617661696c61626c652e000000000081525060200191505060405180910390fd5b6000543414610546576040517f08c379a00000000000000000000000000000000000000000000000000000000081526004018080602001828103825260208152602001807f596f752068617665206e6f7420676976656e20656e6f756768206d6f6e65792e81525060200191505060405180910390fd5b6000339050600060019050600260405180608001604052808473ffffffffffffffffffffffffffffffffffffffff1681526020018315158152602001868152602001858152509080600181540180825580915050906001820390600052602060002090600302016000909192909190915060008201518160000160006101000a81548173ffffffffffffffffffffffffffffffffffffffff021916908373ffffffffffffffffffffffffffffffffffffffff16021790555060208201518160000160146101000a81548160ff021916908315150217905550604082015181600101908051906020019061063a929190610931565b506060820151816002019080519060200190610657929190610931565b5050505060016000815480929190600101919050555050505050565b60608060646040519080825280602002602001820160405280156106a65781602001602082028038833980820191505090505b50905060008090505b6001548111610783576000600282815481106106c757fe5b906000526020600020906003020190503373ffffffffffffffffffffffffffffffffffffffff168160000160009054906101000a900473ffffffffffffffffffffffffffffffffffffffff1673ffffffffffffffffffffffffffffffffffffffff16141561075457600183838151811061073d57fe5b602002602001019015159081151581525050610775565b600083838151811061076257fe5b6020026020010190151590811515815250505b5080806001019150506106af565b508091505090565b6002818154811061079857fe5b90600052602060002090600302016000915090508060000160009054906101000a900473ffffffffffffffffffffffffffffffffffffffff16908060000160149054906101000a900460ff1690806001018054600181600116156101000203166002900480601f01602080910402602001604051908101604052809291908181526020018280546001816001161561010002031660029004801561087d5780601f106108525761010080835404028352916020019161087d565b820191906000526020600020905b81548152906001019060200180831161086057829003601f168201915b505050505090806002018054600181600116156101000203166002900480601f01602080910402602001604051908101604052809291908181526020018280546001816001161561010002031660029004801561091b5780601f106108f05761010080835404028352916020019161091b565b820191906000526020600020905b8154815290600101906020018083116108fe57829003601f168201915b5050505050905084565b60005481565b60015481565b828054600181600116156101000203166002900490600052602060002090601f016020900481019282601f1061097257805160ff19168380011785556109a0565b828001600101855582156109a0579182015b8281111561099f578251825591602001919060010190610984565b5b5090506109ad91906109b1565b5090565b6109d391905b808211156109cf5760008160009055506001016109b7565b5090565b9056fea265627a7a72315820fcd5c221e1774e6f650dfd99199640fefff1db056b372292b4440bcc3b30f88b64736f6c63430005100032",
  "source": "pragma solidity ^0.5.0;\n\n// initialise contract\n\ncontract CoShoe {\n\n    struct Shoe {\n        address payable owner;\n        bool sold;\n        string name;\n        //url to image\n        string image;\n    }\n    // state variable of 0.5 ether and convert to wei\n    uint public price = 0.5 * 1e18 wei ;\n    //  state variable shoessold which keeps number of shoes already sold\n    // initialise as zero\n    uint public shoesSold = 0;\n\n    // public array holding instance of shoes\n    Shoe[] public shoes;\n\n    //  map containing balances\n    mapping (address => uint) public balances;\n\n    \n\n    // constructor to mint 100 coshoe tokens\n    constructor () public {\n        // set address of deployer to be owner\n        //  instance within shoe array\n        Shoe memory shoeArray;\n        \n        shoeArray.owner = msg.sender;\n        shoeArray.name = \"\";\n        shoeArray.image = \"\";\n        shoeArray.sold = false;\n\n        // use mint function to mint 100  tokens to mintere\n        balances[msg.sender] = 100;\n        \n        // push instances to Shoe array\n        shoes.push(shoeArray);\n    \n    }\n\n    \n    // function called buyhsoe\n    function buyShoe(string memory _name, string memory _image) public payable {\n    \n    // find pair of shoes that have not been sold yet\n    \n    require(shoesSold > 0  || shoesSold <=100, \"The are no shoes available.\");\n\n    // checks value of attahced function is same as price\n    require(msg.value == price, \"You have not given enough money.\");\n    \n    \n    //set owner of shoe to function caller;\n    address payable newOwner = msg.sender;\n   \n    bool newSold = true;\n    // push to shoes array\n    shoes.push(Shoe(newOwner, newSold, _name ,_image));\n    // upgrade value of shoes sold\n    shoesSold++;\n\n    }\n    \n    // function to check purchases\n    function checkPurchases() public view returns(bool[] memory) {\n        //set empty boolean array of length of number of shoes sold which will check\n        // will put true in index of array \n        bool[] memory _soldarray = new bool[](100);\n\n        for (uint i = 0; i <= shoesSold; i++) {\n            Shoe storage shoe = shoes[i];\n            if( shoe.owner == msg.sender ) {\n                _soldarray[i]= true ;\n            }\n            else {\n                _soldarray[i] = false;\n            }\n        }\n        return _soldarray;\n        \n    }\n\n    \n\n\n}\n",
  "sourcePath": "/Users/zanelekubheka/Fintech/coshoes/contracts/CoShoe.sol",
  "compiler": {
    "name": "solc",
    "version": "0.5.16+commit.9c3226ce.Emscripten.clang"
  },
  "schemaVersion": "3.0.23",
  "updatedAt": "2020-03-06T14:11:14.619Z",
  "networkType": "ethereum",
  "devdoc": {
    "methods": {}
  },
  "userdoc": {
    "methods": {}
  }
}